{
  "_format": "hh-sol-artifact-1",
  "contractName": "TicketFactory",
  "sourceName": "contracts/TicketFactory.sol",
  "abi": [
    {
      "anonymous": false,
      "inputs": [
        {
          "indexed": true,
          "internalType": "address",
          "name": "eventOrganizer",
          "type": "address"
        },
        {
          "indexed": false,
          "internalType": "address",
          "name": "ticketContract",
          "type": "address"
        }
      ],
      "name": "TicketContractCreated",
      "type": "event"
    },
    {
      "inputs": [
        {
          "internalType": "string",
          "name": "_name",
          "type": "string"
        },
        {
          "internalType": "string",
          "name": "_symbol",
          "type": "string"
        }
      ],
      "name": "createTicketContract",
      "outputs": [
        {
          "internalType": "address",
          "name": "",
          "type": "address"
        }
      ],
      "stateMutability": "nonpayable",
      "type": "function"
    },
    {
      "inputs": [
        {
          "internalType": "address",
          "name": "",
          "type": "address"
        },
        {
          "internalType": "uint256",
          "name": "",
          "type": "uint256"
        }
      ],
      "name": "organizerTickets",
      "outputs": [
        {
          "internalType": "address",
          "name": "",
          "type": "address"
        }
      ],
      "stateMutability": "view",
      "type": "function"
    }
  ],
  "bytecode": "0x6080604052348015600f57600080fd5b5061426c8061001f6000396000f3fe608060405234801561001057600080fd5b50600436106100365760003560e01c806312dbeff41461003b57806370ed06411461006b575b600080fd5b610055600480360381019061005091906102d8565b61009b565b6040516100629190610327565b60405180910390f35b61008560048036038101906100809190610488565b6100e9565b6040516100929190610327565b60405180910390f35b600060205281600052604060002081815481106100b757600080fd5b906000526020600020016000915091509054906101000a900473ffffffffffffffffffffffffffffffffffffffff1681565b6000808383336040516100fb90610223565b6101079392919061057f565b604051809103906000f080158015610123573d6000803e3d6000fd5b50905060008190506000803373ffffffffffffffffffffffffffffffffffffffff1673ffffffffffffffffffffffffffffffffffffffff168152602001908152602001600020819080600181540180825580915050600190039060005260206000200160009091909190916101000a81548173ffffffffffffffffffffffffffffffffffffffff021916908373ffffffffffffffffffffffffffffffffffffffff1602179055503373ffffffffffffffffffffffffffffffffffffffff167fad0b48e6f98c9dc5814e640a253e1f0727910cf30a65a919240cc1673d735166826040516102109190610327565b60405180910390a2809250505092915050565b613c72806105c583390190565b6000604051905090565b600080fd5b600080fd5b600073ffffffffffffffffffffffffffffffffffffffff82169050919050565b600061026f82610244565b9050919050565b61027f81610264565b811461028a57600080fd5b50565b60008135905061029c81610276565b92915050565b6000819050919050565b6102b5816102a2565b81146102c057600080fd5b50565b6000813590506102d2816102ac565b92915050565b600080604083850312156102ef576102ee61023a565b5b60006102fd8582860161028d565b925050602061030e858286016102c3565b9150509250929050565b61032181610264565b82525050565b600060208201905061033c6000830184610318565b92915050565b600080fd5b600080fd5b6000601f19601f8301169050919050565b7f4e487b7100000000000000000000000000000000000000000000000000000000600052604160045260246000fd5b6103958261034c565b810181811067ffffffffffffffff821117156103b4576103b361035d565b5b80604052505050565b60006103c7610230565b90506103d3828261038c565b919050565b600067ffffffffffffffff8211156103f3576103f261035d565b5b6103fc8261034c565b9050602081019050919050565b82818337600083830152505050565b600061042b610426846103d8565b6103bd565b90508281526020810184848401111561044757610446610347565b5b610452848285610409565b509392505050565b600082601f83011261046f5761046e610342565b5b813561047f848260208601610418565b91505092915050565b6000806040838503121561049f5761049e61023a565b5b600083013567ffffffffffffffff8111156104bd576104bc61023f565b5b6104c98582860161045a565b925050602083013567ffffffffffffffff8111156104ea576104e961023f565b5b6104f68582860161045a565b9150509250929050565b600081519050919050565b600082825260208201905092915050565b60005b8381101561053a57808201518184015260208101905061051f565b60008484015250505050565b600061055182610500565b61055b818561050b565b935061056b81856020860161051c565b6105748161034c565b840191505092915050565b600060608201905081810360008301526105998186610546565b905081810360208301526105ad8185610546565b90506105bc6040830184610318565b94935050505056fe608060405234801561001057600080fd5b50604051613c72380380613c7283398181016040528101906100329190610231565b8282816000908161004391906104dd565b50806001908161005391906104dd565b5050505050506105af565b6000604051905090565b600080fd5b600080fd5b600080fd5b600080fd5b6000601f19601f8301169050919050565b7f4e487b7100000000000000000000000000000000000000000000000000000000600052604160045260246000fd5b6100c58261007c565b810181811067ffffffffffffffff821117156100e4576100e361008d565b5b80604052505050565b60006100f761005e565b905061010382826100bc565b919050565b600067ffffffffffffffff8211156101235761012261008d565b5b61012c8261007c565b9050602081019050919050565b60005b8381101561015757808201518184015260208101905061013c565b60008484015250505050565b600061017661017184610108565b6100ed565b90508281526020810184848401111561019257610191610077565b5b61019d848285610139565b509392505050565b600082601f8301126101ba576101b9610072565b5b81516101ca848260208601610163565b91505092915050565b600073ffffffffffffffffffffffffffffffffffffffff82169050919050565b60006101fe826101d3565b9050919050565b61020e816101f3565b811461021957600080fd5b50565b60008151905061022b81610205565b92915050565b60008060006060848603121561024a57610249610068565b5b600084015167ffffffffffffffff8111156102685761026761006d565b5b610274868287016101a5565b935050602084015167ffffffffffffffff8111156102955761029461006d565b5b6102a1868287016101a5565b92505060406102b28682870161021c565b9150509250925092565b600081519050919050565b7f4e487b7100000000000000000000000000000000000000000000000000000000600052602260045260246000fd5b6000600282049050600182168061030e57607f821691505b602082108103610321576103206102c7565b5b50919050565b60008190508160005260206000209050919050565b60006020601f8301049050919050565b600082821b905092915050565b6000600883026103897fffffffffffffffffffffffffffffffffffffffffffffffffffffffffffffffff8261034c565b610393868361034c565b95508019841693508086168417925050509392505050565b6000819050919050565b6000819050919050565b60006103da6103d56103d0846103ab565b6103b5565b6103ab565b9050919050565b6000819050919050565b6103f4836103bf565b610408610400826103e1565b848454610359565b825550505050565b600090565b61041d610410565b6104288184846103eb565b505050565b5b8181101561044c57610441600082610415565b60018101905061042e565b5050565b601f8211156104915761046281610327565b61046b8461033c565b8101602085101561047a578190505b61048e6104868561033c565b83018261042d565b50505b505050565b600082821c905092915050565b60006104b460001984600802610496565b1980831691505092915050565b60006104cd83836104a3565b9150826002028217905092915050565b6104e6826102bc565b67ffffffffffffffff8111156104ff576104fe61008d565b5b61050982546102f6565b610514828285610450565b600060209050601f8311600181146105475760008415610535578287015190505b61053f85826104c1565b8655506105a7565b601f19841661055586610327565b60005b8281101561057d57848901518255600182019150602085019450602081019050610558565b8683101561059a5784890151610596601f8916826104a3565b8355505b6001600288020188555050505b505050505050565b6136b4806105be6000396000f3fe608060405234801561001057600080fd5b506004361061010b5760003560e01c806342842e0e116100a257806395d89b411161007157806395d89b41146102c8578063a22cb465146102e6578063b88d4fde14610302578063c87b56dd1461031e578063e985e9c51461034e5761010b565b806342842e0e146102305780634f2b93791461024c5780636352211e1461026857806370a08231146102985761010b565b80630daefed5116100de5780630daefed5146101aa5780631249c58b146101da57806323b872dd146101e45780633bb3a24d146102005761010b565b806301ffc9a71461011057806306fdde0314610140578063081812fc1461015e578063095ea7b31461018e575b600080fd5b61012a60048036038101906101259190611d26565b61037e565b6040516101379190611d6e565b60405180910390f35b6101486103df565b6040516101559190611e19565b60405180910390f35b61017860048036038101906101739190611e71565b610471565b6040516101859190611edf565b60405180910390f35b6101a860048036038101906101a39190611f26565b6104b7565b005b6101c460048036038101906101bf9190611e71565b6105ce565b6040516101d19190611e19565b60405180910390f35b6101e2610624565b005b6101fe60048036038101906101f99190611f66565b61065b565b005b61021a60048036038101906102159190611e71565b6106bb565b6040516102279190611e19565b60405180910390f35b61024a60048036038101906102459190611f66565b610723565b005b61026660048036038101906102619190611fb9565b610743565b005b610282600480360381019061027d9190611e71565b61077b565b60405161028f9190611edf565b60405180910390f35b6102b260048036038101906102ad9190611fb9565b610801565b6040516102bf9190611ff5565b60405180910390f35b6102d06108b8565b6040516102dd9190611e19565b60405180910390f35b61030060048036038101906102fb919061203c565b61094a565b005b61031c600480360381019061031791906121b1565b610960565b005b61033860048036038101906103339190611e71565b6109c2565b6040516103459190611e19565b60405180910390f35b61036860048036038101906103639190612234565b610ad4565b6040516103759190611d6e565b60405180910390f35b6000634906490660e01b7bffffffffffffffffffffffffffffffffffffffffffffffffffffffff1916827bffffffffffffffffffffffffffffffffffffffffffffffffffffffff191614806103d857506103d782610b68565b5b9050919050565b6060600080546103ee906122a3565b80601f016020809104026020016040519081016040528092919081815260200182805461041a906122a3565b80156104675780601f1061043c57610100808354040283529160200191610467565b820191906000526020600020905b81548152906001019060200180831161044a57829003601f168201915b5050505050905090565b600061047c82610c4a565b6004600083815260200190815260200160002060009054906101000a900473ffffffffffffffffffffffffffffffffffffffff169050919050565b60006104c28261077b565b90508073ffffffffffffffffffffffffffffffffffffffff168373ffffffffffffffffffffffffffffffffffffffff1603610532576040517f08c379a000000000000000000000000000000000000000000000000000000000815260040161052990612346565b60405180910390fd5b8073ffffffffffffffffffffffffffffffffffffffff16610551610c95565b73ffffffffffffffffffffffffffffffffffffffff161480610580575061057f8161057a610c95565b610ad4565b5b6105bf576040517f08c379a00000000000000000000000000000000000000000000000000000000081526004016105b6906123d8565b60405180910390fd5b6105c98383610c9d565b505050565b60606000826040516020016105e3919061284c565b60405160208183030381529060405290506105fd81610d56565b60405160200161060d919061295d565b604051602081830303815290604052915050919050565b61062e6007610ec8565b600061063a6007610ede565b90506106463382610eec565b61065881610653836106bb565b610f0a565b50565b61066c610666610c95565b82610fae565b6106ab576040517f08c379a00000000000000000000000000000000000000000000000000000000081526004016106a2906129f1565b60405180910390fd5b6106b6838383611043565b505050565b606060006106c88361133c565b6106d1846105ce565b6040516020016106e2929190612c4b565b60405160208183030381529060405290506106fc81610d56565b60405160200161070c9190612d08565b604051602081830303815290604052915050919050565b61073e83838360405180602001604052806000815250610960565b505050565b61074d6007610ec8565b60006107596007610ede565b90506107658282610eec565b61077781610772836106bb565b610f0a565b5050565b6000806107878361140a565b9050600073ffffffffffffffffffffffffffffffffffffffff168173ffffffffffffffffffffffffffffffffffffffff16036107f8576040517f08c379a00000000000000000000000000000000000000000000000000000000081526004016107ef90612d76565b60405180910390fd5b80915050919050565b60008073ffffffffffffffffffffffffffffffffffffffff168273ffffffffffffffffffffffffffffffffffffffff1603610871576040517f08c379a000000000000000000000000000000000000000000000000000000000815260040161086890612e08565b60405180910390fd5b600360008373ffffffffffffffffffffffffffffffffffffffff1673ffffffffffffffffffffffffffffffffffffffff168152602001908152602001600020549050919050565b6060600180546108c7906122a3565b80601f01602080910402602001604051908101604052809291908181526020018280546108f3906122a3565b80156109405780601f1061091557610100808354040283529160200191610940565b820191906000526020600020905b81548152906001019060200180831161092357829003601f168201915b5050505050905090565b61095c610955610c95565b8383611447565b5050565b61097161096b610c95565b83610fae565b6109b0576040517f08c379a00000000000000000000000000000000000000000000000000000000081526004016109a7906129f1565b60405180910390fd5b6109bc848484846115b3565b50505050565b60606109cd82610c4a565b60006006600084815260200190815260200160002080546109ed906122a3565b80601f0160208091040260200160405190810160405280929190818152602001828054610a19906122a3565b8015610a665780601f10610a3b57610100808354040283529160200191610a66565b820191906000526020600020905b815481529060010190602001808311610a4957829003601f168201915b505050505090506000610a7761160f565b90506000815103610a8c578192505050610acf565b600082511115610ac1578082604051602001610aa9929190612e28565b60405160208183030381529060405292505050610acf565b610aca84611626565b925050505b919050565b6000600560008473ffffffffffffffffffffffffffffffffffffffff1673ffffffffffffffffffffffffffffffffffffffff16815260200190815260200160002060008373ffffffffffffffffffffffffffffffffffffffff1673ffffffffffffffffffffffffffffffffffffffff16815260200190815260200160002060009054906101000a900460ff16905092915050565b60007f80ac58cd000000000000000000000000000000000000000000000000000000007bffffffffffffffffffffffffffffffffffffffffffffffffffffffff1916827bffffffffffffffffffffffffffffffffffffffffffffffffffffffff19161480610c3357507f5b5e139f000000000000000000000000000000000000000000000000000000007bffffffffffffffffffffffffffffffffffffffffffffffffffffffff1916827bffffffffffffffffffffffffffffffffffffffffffffffffffffffff1916145b80610c435750610c428261168e565b5b9050919050565b610c53816116f8565b610c92576040517f08c379a0000000000000000000000000000000000000000000000000000000008152600401610c8990612d76565b60405180910390fd5b50565b600033905090565b816004600083815260200190815260200160002060006101000a81548173ffffffffffffffffffffffffffffffffffffffff021916908373ffffffffffffffffffffffffffffffffffffffff160217905550808273ffffffffffffffffffffffffffffffffffffffff16610d108361077b565b73ffffffffffffffffffffffffffffffffffffffff167f8c5be1e5ebec7d5bd14f71427d1e84f3dd0314c0f7b2291e5b200ac8c7c3b92560405160405180910390a45050565b60606000825103610d7857604051806020016040528060008152509050610ec3565b600060405180606001604052806040815260200161363f6040913990506000600360028551610da79190612e7b565b610db19190612ede565b6004610dbd9190612f0f565b67ffffffffffffffff811115610dd657610dd5612086565b5b6040519080825280601f01601f191660200182016040528015610e085781602001600182028036833780820191505090505b50905060018201602082018586518701602081018051600082525b82841015610e7e576003840193508351603f8160121c168701518653600186019550603f81600c1c168701518653600186019550603f8160061c168701518653600186019550603f8116870151865360018601955050610e23565b80825260038a510660018114610e9b5760028114610eae57610eb6565b603d6001870353603d6002870353610eb6565b603d60018703535b5050505050505080925050505b919050565b6001816000016000828254019250508190555050565b600081600001549050919050565b610f06828260405180602001604052806000815250611739565b5050565b610f13826116f8565b610f52576040517f08c379a0000000000000000000000000000000000000000000000000000000008152600401610f4990612fc3565b60405180910390fd5b80600660008481526020019081526020016000209081610f72919061318f565b507ff8e1a15aba9398e019f0b49df1a4fde98ee17ae345cb5f6b5e2c27f5033e8ce782604051610fa29190611ff5565b60405180910390a15050565b600080610fba8361077b565b90508073ffffffffffffffffffffffffffffffffffffffff168473ffffffffffffffffffffffffffffffffffffffff161480610ffc5750610ffb8185610ad4565b5b8061103a57508373ffffffffffffffffffffffffffffffffffffffff1661102284610471565b73ffffffffffffffffffffffffffffffffffffffff16145b91505092915050565b8273ffffffffffffffffffffffffffffffffffffffff166110638261077b565b73ffffffffffffffffffffffffffffffffffffffff16146110b9576040517f08c379a00000000000000000000000000000000000000000000000000000000081526004016110b0906132d3565b60405180910390fd5b600073ffffffffffffffffffffffffffffffffffffffff168273ffffffffffffffffffffffffffffffffffffffff1603611128576040517f08c379a000000000000000000000000000000000000000000000000000000000815260040161111f90613365565b60405180910390fd5b6111358383836001611794565b8273ffffffffffffffffffffffffffffffffffffffff166111558261077b565b73ffffffffffffffffffffffffffffffffffffffff16146111ab576040517f08c379a00000000000000000000000000000000000000000000000000000000081526004016111a2906132d3565b60405180910390fd5b6004600082815260200190815260200160002060006101000a81549073ffffffffffffffffffffffffffffffffffffffff02191690556001600360008573ffffffffffffffffffffffffffffffffffffffff1673ffffffffffffffffffffffffffffffffffffffff168152602001908152602001600020600082825403925050819055506001600360008473ffffffffffffffffffffffffffffffffffffffff1673ffffffffffffffffffffffffffffffffffffffff16815260200190815260200160002060008282540192505081905550816002600083815260200190815260200160002060006101000a81548173ffffffffffffffffffffffffffffffffffffffff021916908373ffffffffffffffffffffffffffffffffffffffff160217905550808273ffffffffffffffffffffffffffffffffffffffff168473ffffffffffffffffffffffffffffffffffffffff167fddf252ad1be2c89b69c2b068fc378daa952ba7f163c4a11628f55a4df523b3ef60405160405180910390a4611337838383600161179a565b505050565b60606000600161134b846117a0565b01905060008167ffffffffffffffff81111561136a57611369612086565b5b6040519080825280601f01601f19166020018201604052801561139c5781602001600182028036833780820191505090505b509050600082602001820190505b6001156113ff578080600190039150507f3031323334353637383961626364656600000000000000000000000000000000600a86061a8153600a85816113f3576113f2612eaf565b5b049450600085036113aa575b819350505050919050565b60006002600083815260200190815260200160002060009054906101000a900473ffffffffffffffffffffffffffffffffffffffff169050919050565b8173ffffffffffffffffffffffffffffffffffffffff168373ffffffffffffffffffffffffffffffffffffffff16036114b5576040517f08c379a00000000000000000000000000000000000000000000000000000000081526004016114ac906133d1565b60405180910390fd5b80600560008573ffffffffffffffffffffffffffffffffffffffff1673ffffffffffffffffffffffffffffffffffffffff16815260200190815260200160002060008473ffffffffffffffffffffffffffffffffffffffff1673ffffffffffffffffffffffffffffffffffffffff16815260200190815260200160002060006101000a81548160ff0219169083151502179055508173ffffffffffffffffffffffffffffffffffffffff168373ffffffffffffffffffffffffffffffffffffffff167f17307eab39ab6107e8899845ad3d59bd9653f200f220920489ca2b5937696c31836040516115a69190611d6e565b60405180910390a3505050565b6115be848484611043565b6115ca848484846118f3565b611609576040517f08c379a000000000000000000000000000000000000000000000000000000000815260040161160090613463565b60405180910390fd5b50505050565b606060405180602001604052806000815250905090565b606061163182610c4a565b600061163b61160f565b9050600081511161165b5760405180602001604052806000815250611686565b806116658461133c565b604051602001611676929190612e28565b6040516020818303038152906040525b915050919050565b60007f01ffc9a7000000000000000000000000000000000000000000000000000000007bffffffffffffffffffffffffffffffffffffffffffffffffffffffff1916827bffffffffffffffffffffffffffffffffffffffffffffffffffffffff1916149050919050565b60008073ffffffffffffffffffffffffffffffffffffffff1661171a8361140a565b73ffffffffffffffffffffffffffffffffffffffff1614159050919050565b6117438383611a7a565b61175060008484846118f3565b61178f576040517f08c379a000000000000000000000000000000000000000000000000000000000815260040161178690613463565b60405180910390fd5b505050565b50505050565b50505050565b600080600090507a184f03e93ff9f4daa797ed6e38ed64bf6a1f01000000000000000083106117fe577a184f03e93ff9f4daa797ed6e38ed64bf6a1f01000000000000000083816117f4576117f3612eaf565b5b0492506040810190505b6d04ee2d6d415b85acef8100000000831061183b576d04ee2d6d415b85acef8100000000838161183157611830612eaf565b5b0492506020810190505b662386f26fc10000831061186a57662386f26fc1000083816118605761185f612eaf565b5b0492506010810190505b6305f5e1008310611893576305f5e100838161188957611888612eaf565b5b0492506008810190505b61271083106118b85761271083816118ae576118ad612eaf565b5b0492506004810190505b606483106118db57606483816118d1576118d0612eaf565b5b0492506002810190505b600a83106118ea576001810190505b80915050919050565b60006119148473ffffffffffffffffffffffffffffffffffffffff16611c97565b15611a6d578373ffffffffffffffffffffffffffffffffffffffff1663150b7a0261193d610c95565b8786866040518563ffffffff1660e01b815260040161195f94939291906134d8565b6020604051808303816000875af192505050801561199b57506040513d601f19601f820116820180604052508101906119989190613539565b60015b611a1d573d80600081146119cb576040519150601f19603f3d011682016040523d82523d6000602084013e6119d0565b606091505b506000815103611a15576040517f08c379a0000000000000000000000000000000000000000000000000000000008152600401611a0c90613463565b60405180910390fd5b805181602001fd5b63150b7a0260e01b7bffffffffffffffffffffffffffffffffffffffffffffffffffffffff1916817bffffffffffffffffffffffffffffffffffffffffffffffffffffffff191614915050611a72565b600190505b949350505050565b600073ffffffffffffffffffffffffffffffffffffffff168273ffffffffffffffffffffffffffffffffffffffff1603611ae9576040517f08c379a0000000000000000000000000000000000000000000000000000000008152600401611ae0906135b2565b60405180910390fd5b611af2816116f8565b15611b32576040517f08c379a0000000000000000000000000000000000000000000000000000000008152600401611b299061361e565b60405180910390fd5b611b40600083836001611794565b611b49816116f8565b15611b89576040517f08c379a0000000000000000000000000000000000000000000000000000000008152600401611b809061361e565b60405180910390fd5b6001600360008473ffffffffffffffffffffffffffffffffffffffff1673ffffffffffffffffffffffffffffffffffffffff16815260200190815260200160002060008282540192505081905550816002600083815260200190815260200160002060006101000a81548173ffffffffffffffffffffffffffffffffffffffff021916908373ffffffffffffffffffffffffffffffffffffffff160217905550808273ffffffffffffffffffffffffffffffffffffffff16600073ffffffffffffffffffffffffffffffffffffffff167fddf252ad1be2c89b69c2b068fc378daa952ba7f163c4a11628f55a4df523b3ef60405160405180910390a4611c9360008383600161179a565b5050565b6000808273ffffffffffffffffffffffffffffffffffffffff163b119050919050565b6000604051905090565b600080fd5b600080fd5b60007fffffffff0000000000000000000000000000000000000000000000000000000082169050919050565b611d0381611cce565b8114611d0e57600080fd5b50565b600081359050611d2081611cfa565b92915050565b600060208284031215611d3c57611d3b611cc4565b5b6000611d4a84828501611d11565b91505092915050565b60008115159050919050565b611d6881611d53565b82525050565b6000602082019050611d836000830184611d5f565b92915050565b600081519050919050565b600082825260208201905092915050565b60005b83811015611dc3578082015181840152602081019050611da8565b60008484015250505050565b6000601f19601f8301169050919050565b6000611deb82611d89565b611df58185611d94565b9350611e05818560208601611da5565b611e0e81611dcf565b840191505092915050565b60006020820190508181036000830152611e338184611de0565b905092915050565b6000819050919050565b611e4e81611e3b565b8114611e5957600080fd5b50565b600081359050611e6b81611e45565b92915050565b600060208284031215611e8757611e86611cc4565b5b6000611e9584828501611e5c565b91505092915050565b600073ffffffffffffffffffffffffffffffffffffffff82169050919050565b6000611ec982611e9e565b9050919050565b611ed981611ebe565b82525050565b6000602082019050611ef46000830184611ed0565b92915050565b611f0381611ebe565b8114611f0e57600080fd5b50565b600081359050611f2081611efa565b92915050565b60008060408385031215611f3d57611f3c611cc4565b5b6000611f4b85828601611f11565b9250506020611f5c85828601611e5c565b9150509250929050565b600080600060608486031215611f7f57611f7e611cc4565b5b6000611f8d86828701611f11565b9350506020611f9e86828701611f11565b9250506040611faf86828701611e5c565b9150509250925092565b600060208284031215611fcf57611fce611cc4565b5b6000611fdd84828501611f11565b91505092915050565b611fef81611e3b565b82525050565b600060208201905061200a6000830184611fe6565b92915050565b61201981611d53565b811461202457600080fd5b50565b60008135905061203681612010565b92915050565b6000806040838503121561205357612052611cc4565b5b600061206185828601611f11565b925050602061207285828601612027565b9150509250929050565b600080fd5b600080fd5b7f4e487b7100000000000000000000000000000000000000000000000000000000600052604160045260246000fd5b6120be82611dcf565b810181811067ffffffffffffffff821117156120dd576120dc612086565b5b80604052505050565b60006120f0611cba565b90506120fc82826120b5565b919050565b600067ffffffffffffffff82111561211c5761211b612086565b5b61212582611dcf565b9050602081019050919050565b82818337600083830152505050565b600061215461214f84612101565b6120e6565b9050828152602081018484840111156121705761216f612081565b5b61217b848285612132565b509392505050565b600082601f8301126121985761219761207c565b5b81356121a8848260208601612141565b91505092915050565b600080600080608085870312156121cb576121ca611cc4565b5b60006121d987828801611f11565b94505060206121ea87828801611f11565b93505060406121fb87828801611e5c565b925050606085013567ffffffffffffffff81111561221c5761221b611cc9565b5b61222887828801612183565b91505092959194509250565b6000806040838503121561224b5761224a611cc4565b5b600061225985828601611f11565b925050602061226a85828601611f11565b9150509250929050565b7f4e487b7100000000000000000000000000000000000000000000000000000000600052602260045260246000fd5b600060028204905060018216806122bb57607f821691505b6020821081036122ce576122cd612274565b5b50919050565b7f4552433732313a20617070726f76616c20746f2063757272656e74206f776e6560008201527f7200000000000000000000000000000000000000000000000000000000000000602082015250565b6000612330602183611d94565b915061233b826122d4565b604082019050919050565b6000602082019050818103600083015261235f81612323565b9050919050565b7f4552433732313a20617070726f76652063616c6c6572206973206e6f7420746f60008201527f6b656e206f776e6572206f7220617070726f76656420666f7220616c6c000000602082015250565b60006123c2603d83611d94565b91506123cd82612366565b604082019050919050565b600060208201905081810360008301526123f1816123b5565b9050919050565b600081905092915050565b7f3c73766720786d6c6e733d22687474703a2f2f7777772e77332e6f72672f323060008201527f30302f73766722207072657365727665417370656374526174696f3d22784d6960208201527f6e594d696e206d656574222076696577426f783d22302030203335302033353060408201527f223e000000000000000000000000000000000000000000000000000000000000606082015250565b60006124ab6062836123f8565b91506124b682612403565b606282019050919050565b7f3c7374796c653e2e62617365207b2066696c6c3a2077686974653b20666f6e7460008201527f2d66616d696c793a2073657269663b20666f6e742d73697a653a20313470783b60208201527f207d3c2f7374796c653e00000000000000000000000000000000000000000000604082015250565b6000612543604a836123f8565b915061254e826124c1565b604a82019050919050565b7f3c726563742077696474683d223130302522206865696768743d22313030252260008201527f2066696c6c3d22626c61636b22202f3e00000000000000000000000000000000602082015250565b60006125b56030836123f8565b91506125c082612559565b603082019050919050565b7f3c7465787420783d223530252220793d223430252220636c6173733d2262617360008201527f652220646f6d696e616e742d626173656c696e653d226d6964646c652220746560208201527f78742d616e63686f723d226d6964646c65223e00000000000000000000000000604082015250565b600061264d6053836123f8565b9150612658826125cb565b605382019050919050565b7f57617272696f7200000000000000000000000000000000000000000000000000600082015250565b60006126996007836123f8565b91506126a482612663565b600782019050919050565b7f3c2f746578743e00000000000000000000000000000000000000000000000000600082015250565b60006126e56007836123f8565b91506126f0826126af565b600782019050919050565b7f3c7465787420783d223530252220793d223530252220636c6173733d2262617360008201527f652220646f6d696e616e742d626173656c696e653d226d6964646c652220746560208201527f78742d616e63686f723d226d6964646c65223e00000000000000000000000000604082015250565b600061277d6053836123f8565b9150612788826126fb565b605382019050919050565b7f4c6576656c733a20000000000000000000000000000000000000000000000000600082015250565b60006127c96008836123f8565b91506127d482612793565b600882019050919050565b6000819050919050565b6127fa6127f582611e3b565b6127df565b82525050565b7f3c2f7376673e0000000000000000000000000000000000000000000000000000600082015250565b60006128366006836123f8565b915061284182612800565b600682019050919050565b60006128578261249e565b915061286282612536565b915061286d826125a8565b915061287882612640565b91506128838261268c565b915061288e826126d8565b915061289982612770565b91506128a4826127bc565b91506128b082846127e9565b6020820191506128bf826126d8565b91506128ca826126d8565b91506128d582612829565b915081905092915050565b7f646174613a696d6167652f7376672b786d6c3b6261736536342c000000000000600082015250565b6000612916601a836123f8565b9150612921826128e0565b601a82019050919050565b600061293782611d89565b61294181856123f8565b9350612951818560208601611da5565b80840191505092915050565b600061296882612909565b9150612974828461292c565b915081905092915050565b7f4552433732313a2063616c6c6572206973206e6f7420746f6b656e206f776e6560008201527f72206f7220617070726f76656400000000000000000000000000000000000000602082015250565b60006129db602d83611d94565b91506129e68261297f565b604082019050919050565b60006020820190508181036000830152612a0a816129ce565b9050919050565b7f7b00000000000000000000000000000000000000000000000000000000000000600082015250565b6000612a476001836123f8565b9150612a5282612a11565b600182019050919050565b7f226e616d65223a2022436861696e20426174746c657320230000000000000000600082015250565b6000612a936018836123f8565b9150612a9e82612a5d565b601882019050919050565b7f222c000000000000000000000000000000000000000000000000000000000000600082015250565b6000612adf6002836123f8565b9150612aea82612aa9565b600282019050919050565b7f226465736372697074696f6e223a2022426174746c6573206f6e20636861696e60008201527f222c000000000000000000000000000000000000000000000000000000000000602082015250565b6000612b516022836123f8565b9150612b5c82612af5565b602282019050919050565b7f22696d616765223a202200000000000000000000000000000000000000000000600082015250565b6000612b9d600a836123f8565b9150612ba882612b67565b600a82019050919050565b7f2200000000000000000000000000000000000000000000000000000000000000600082015250565b6000612be96001836123f8565b9150612bf482612bb3565b600182019050919050565b7f7d00000000000000000000000000000000000000000000000000000000000000600082015250565b6000612c356001836123f8565b9150612c4082612bff565b600182019050919050565b6000612c5682612a3a565b9150612c6182612a86565b9150612c6d828561292c565b9150612c7882612ad2565b9150612c8382612b44565b9150612c8e82612b90565b9150612c9a828461292c565b9150612ca582612bdc565b9150612cb082612c28565b91508190509392505050565b7f646174613a6170706c69636174696f6e2f6a736f6e3b6261736536342c000000600082015250565b6000612cf2601d836123f8565b9150612cfd82612cbc565b601d82019050919050565b6000612d1382612ce5565b9150612d1f828461292c565b915081905092915050565b7f4552433732313a20696e76616c696420746f6b656e2049440000000000000000600082015250565b6000612d60601883611d94565b9150612d6b82612d2a565b602082019050919050565b60006020820190508181036000830152612d8f81612d53565b9050919050565b7f4552433732313a2061646472657373207a65726f206973206e6f74206120766160008201527f6c6964206f776e65720000000000000000000000000000000000000000000000602082015250565b6000612df2602983611d94565b9150612dfd82612d96565b604082019050919050565b60006020820190508181036000830152612e2181612de5565b9050919050565b6000612e34828561292c565b9150612e40828461292c565b91508190509392505050565b7f4e487b7100000000000000000000000000000000000000000000000000000000600052601160045260246000fd5b6000612e8682611e3b565b9150612e9183611e3b565b9250828201905080821115612ea957612ea8612e4c565b5b92915050565b7f4e487b7100000000000000000000000000000000000000000000000000000000600052601260045260246000fd5b6000612ee982611e3b565b9150612ef483611e3b565b925082612f0457612f03612eaf565b5b828204905092915050565b6000612f1a82611e3b565b9150612f2583611e3b565b9250828202612f3381611e3b565b91508282048414831517612f4a57612f49612e4c565b5b5092915050565b7f45524337323155524953746f726167653a2055524920736574206f66206e6f6e60008201527f6578697374656e7420746f6b656e000000000000000000000000000000000000602082015250565b6000612fad602e83611d94565b9150612fb882612f51565b604082019050919050565b60006020820190508181036000830152612fdc81612fa0565b9050919050565b60008190508160005260206000209050919050565b60006020601f8301049050919050565b600082821b905092915050565b6000600883026130457fffffffffffffffffffffffffffffffffffffffffffffffffffffffffffffffff82613008565b61304f8683613008565b95508019841693508086168417925050509392505050565b6000819050919050565b600061308c61308761308284611e3b565b613067565b611e3b565b9050919050565b6000819050919050565b6130a683613071565b6130ba6130b282613093565b848454613015565b825550505050565b600090565b6130cf6130c2565b6130da81848461309d565b505050565b5b818110156130fe576130f36000826130c7565b6001810190506130e0565b5050565b601f8211156131435761311481612fe3565b61311d84612ff8565b8101602085101561312c578190505b61314061313885612ff8565b8301826130df565b50505b505050565b600082821c905092915050565b600061316660001984600802613148565b1980831691505092915050565b600061317f8383613155565b9150826002028217905092915050565b61319882611d89565b67ffffffffffffffff8111156131b1576131b0612086565b5b6131bb82546122a3565b6131c6828285613102565b600060209050601f8311600181146131f957600084156131e7578287015190505b6131f18582613173565b865550613259565b601f19841661320786612fe3565b60005b8281101561322f5784890151825560018201915060208501945060208101905061320a565b8683101561324c5784890151613248601f891682613155565b8355505b6001600288020188555050505b505050505050565b7f4552433732313a207472616e736665722066726f6d20696e636f72726563742060008201527f6f776e6572000000000000000000000000000000000000000000000000000000602082015250565b60006132bd602583611d94565b91506132c882613261565b604082019050919050565b600060208201905081810360008301526132ec816132b0565b9050919050565b7f4552433732313a207472616e7366657220746f20746865207a65726f2061646460008201527f7265737300000000000000000000000000000000000000000000000000000000602082015250565b600061334f602483611d94565b915061335a826132f3565b604082019050919050565b6000602082019050818103600083015261337e81613342565b9050919050565b7f4552433732313a20617070726f766520746f2063616c6c657200000000000000600082015250565b60006133bb601983611d94565b91506133c682613385565b602082019050919050565b600060208201905081810360008301526133ea816133ae565b9050919050565b7f4552433732313a207472616e7366657220746f206e6f6e20455243373231526560008201527f63656976657220696d706c656d656e7465720000000000000000000000000000602082015250565b600061344d603283611d94565b9150613458826133f1565b604082019050919050565b6000602082019050818103600083015261347c81613440565b9050919050565b600081519050919050565b600082825260208201905092915050565b60006134aa82613483565b6134b4818561348e565b93506134c4818560208601611da5565b6134cd81611dcf565b840191505092915050565b60006080820190506134ed6000830187611ed0565b6134fa6020830186611ed0565b6135076040830185611fe6565b8181036060830152613519818461349f565b905095945050505050565b60008151905061353381611cfa565b92915050565b60006020828403121561354f5761354e611cc4565b5b600061355d84828501613524565b91505092915050565b7f4552433732313a206d696e7420746f20746865207a65726f2061646472657373600082015250565b600061359c602083611d94565b91506135a782613566565b602082019050919050565b600060208201905081810360008301526135cb8161358f565b9050919050565b7f4552433732313a20746f6b656e20616c7265616479206d696e74656400000000600082015250565b6000613608601c83611d94565b9150613613826135d2565b602082019050919050565b60006020820190508181036000830152613637816135fb565b905091905056fe4142434445464748494a4b4c4d4e4f505152535455565758595a6162636465666768696a6b6c6d6e6f707172737475767778797a303132333435363738392b2fa2646970667358221220e67c3161f733180849ebae3651d9c80102f3c5930e11e2e7a9e4d3f2ebe8aa7d64736f6c634300081c0033a26469706673582212208661ab927ae5351c4663aad25b87dce4fcbe9ced694e4cf7614837365a74777564736f6c634300081c0033",
  "linkReferences": {},
  "deployedLinkReferences": {}
}